{
  "_format": "hh-sol-artifact-1",
  "contractName": "QuizFactory",
  "sourceName": "contracts/QuizFactory.sol",
  "abi": [
    {
      "inputs": [],
      "stateMutability": "payable",
      "type": "constructor"
    },
    {
      "anonymous": false,
      "inputs": [
        {
          "indexed": true,
          "internalType": "contract QuizGame",
          "name": "quiz",
          "type": "address"
        }
      ],
      "name": "QuizCreated",
      "type": "event"
    },
    {
      "inputs": [
        {
          "internalType": "string",
          "name": "question",
          "type": "string"
        },
        {
          "internalType": "bytes32",
          "name": "hashedAnswer",
          "type": "bytes32"
        }
      ],
      "name": "createQuiz",
      "outputs": [],
      "stateMutability": "payable",
      "type": "function"
    },
    {
      "inputs": [],
      "name": "getQuizzes",
      "outputs": [
        {
          "internalType": "contract QuizGame[]",
          "name": "",
          "type": "address[]"
        }
      ],
      "stateMutability": "view",
      "type": "function"
    },
    {
      "inputs": [
        {
          "internalType": "uint256",
          "name": "",
          "type": "uint256"
        }
      ],
      "name": "quizzes",
      "outputs": [
        {
          "internalType": "contract QuizGame",
          "name": "",
          "type": "address"
        }
      ],
      "stateMutability": "view",
      "type": "function"
    }
  ],
  "bytecode": "0x60806040526100367f27ab98b9c8e64da445bab4c662f12feb4c9ebbadf3164e175d24c7a41f97f14060001b61003b60201b60201c565b61003e565b50565b611be68061004d6000396000f3fe608060405260043610620000385760003560e01c80635ecd45b9146200003d57806388409afa146200006d578063fc98a59814620000b1575b600080fd5b3480156200004a57600080fd5b5062000055620000d1565b60405162000064919062000688565b60405180910390f35b3480156200007a57600080fd5b5062000099600480360381019062000093919062000564565b620001eb565b604051620000a89190620006ac565b60405180910390f35b620000cf6004803603810190620000c991906200050a565b6200022b565b005b6060620001017f312df9cd069b8d90ad0f893afa7f937c7f86850dae033d10710c903855cedbd760001b62000459565b6200012f7f8c32a87f5cf4577d5b971d2b8dc38cc604df02a9b09c61debd8497f0f45559bf60001b62000459565b6200015d7f5e1a56519f46c5e170e4113d5cb93f099dd4ede9aaec3a1d0311cfbe1011dd7c60001b62000459565b6000805480602002602001604051908101604052809291908181526020018280548015620001e157602002820191906000526020600020905b8160009054906101000a900473ffffffffffffffffffffffffffffffffffffffff1673ffffffffffffffffffffffffffffffffffffffff168152602001906001019080831162000196575b5050505050905090565b60008181548110620001fc57600080fd5b906000526020600020016000915054906101000a900473ffffffffffffffffffffffffffffffffffffffff1681565b620002597fe4d9ff795c07c8bbe6ae63082e2f1fedfaf44595b9a913514a4bbf474207442c60001b62000459565b620002877f83e4ac410dfd705373465cbf9202ed25bb84524421e1e03f80fda28f8efa180060001b62000459565b620002b57f8020fbc656254430d43275f53f20eb80ba36f315e3333a793c0d53efaaf4b41960001b62000459565b6000348383604051620002c8906200045c565b620002d5929190620006c9565b6040518091039082f0905080158015620002f3573d6000803e3d6000fd5b509050620003247f1958dfad6b3d481e58195135a6739cef8e8a58ef6bd8bda05cc640a221a66b4960001b62000459565b620003527f0706c58b3d9804ea2a732fca53ad1ceb30d3195f4859915341d00c1e946ff62360001b62000459565b6000819080600181540180825580915050600190039060005260206000200160009091909190916101000a81548173ffffffffffffffffffffffffffffffffffffffff021916908373ffffffffffffffffffffffffffffffffffffffff160217905550620003e37f6f39ca624f077ce56df1b5f5c317c05ac4abf3c5277e19c552ba2fd0d8ea266160001b62000459565b620004117fe6fbb3d1b2ce9a6c2c00cc5f9863ffc86e0d069145b3ec701a02f7a6e4cc3e6260001b62000459565b8073ffffffffffffffffffffffffffffffffffffffff167f0265693c8d95ffd63866cae4d18980d296337fa815a89b42926fc64fda65729c60405160405180910390a2505050565b50565b6112b480620008fd83390190565b6000620004816200047b8462000726565b620006fd565b9050828152602081018484840111156200049a57600080fd5b620004a78482856200080d565b509392505050565b600081359050620004c081620008c8565b92915050565b600082601f830112620004d857600080fd5b8135620004ea8482602086016200046a565b91505092915050565b6000813590506200050481620008e2565b92915050565b600080604083850312156200051e57600080fd5b600083013567ffffffffffffffff8111156200053957600080fd5b6200054785828601620004c6565b92505060206200055a85828601620004af565b9150509250929050565b6000602082840312156200057757600080fd5b60006200058784828501620004f3565b91505092915050565b60006200059e838362000625565b60208301905092915050565b6000620005b7826200076c565b620005c381856200078f565b9350620005d0836200075c565b8060005b8381101562000607578151620005eb888262000590565b9750620005f88362000782565b925050600181019050620005d4565b5085935050505092915050565b6200061f81620007b1565b82525050565b6200063081620007e5565b82525050565b6200064181620007e5565b82525050565b6000620006548262000777565b620006608185620007a0565b9350620006728185602086016200081c565b6200067d81620008b7565b840191505092915050565b60006020820190508181036000830152620006a48184620005aa565b905092915050565b6000602082019050620006c3600083018462000636565b92915050565b60006040820190508181036000830152620006e5818562000647565b9050620006f6602083018462000614565b9392505050565b6000620007096200071c565b905062000717828262000852565b919050565b6000604051905090565b600067ffffffffffffffff82111562000744576200074362000888565b5b6200074f82620008b7565b9050602081019050919050565b6000819050602082019050919050565b600081519050919050565b600081519050919050565b6000602082019050919050565b600082825260208201905092915050565b600082825260208201905092915050565b6000819050919050565b600073ffffffffffffffffffffffffffffffffffffffff82169050919050565b6000819050919050565b6000620007f282620007f9565b9050919050565b60006200080682620007bb565b9050919050565b82818337600083830152505050565b60005b838110156200083c5780820151818401526020810190506200081f565b838111156200084c576000848401525b50505050565b6200085d82620008b7565b810181811067ffffffffffffffff821117156200087f576200087e62000888565b5b80604052505050565b7f4e487b7100000000000000000000000000000000000000000000000000000000600052604160045260246000fd5b6000601f19601f8301169050919050565b620008d381620007b1565b8114620008df57600080fd5b50565b620008ed81620007db565b8114620008f957600080fd5b5056fe60806040526040518060400160405280600f81526020017f74686973206973206d792073616c7400000000000000000000000000000000008152506002908051906020019062000051929190620001a6565b50604051620012b4380380620012b48339818101604052810190620000779190620002df565b620000ab7fd2a3400623471340c5b0f7f9e130850a34ca98a816013cc287ba760e3128019860001b620001a360201b60201c565b620000df7f8bf378f1ae80d4b23de32372331798491bdedd25039a0d243f9b5642f83ccc3d60001b620001a360201b60201c565b620001137f53e479b41cde72e532d6ab3d9acbe97b96102be1c234c4abe98afbd08ab4929c60001b620001a360201b60201c565b81600090805190602001906200012b929190620001a6565b50620001607f5f564993e7b62eb023d46f7a252b0451e73ede4fe0424ecbd4ed3a06ca80062160001b620001a360201b60201c565b620001947f7c1595d4c91386694f99fb2a4574ccb9cd869d9836c111a526b4bc143313f36760001b620001a360201b60201c565b806001819055505050620004cd565b50565b828054620001b490620003d8565b90600052602060002090601f016020900481019282620001d8576000855562000224565b82601f10620001f357805160ff191683800117855562000224565b8280016001018555821562000224579182015b828111156200022357825182559160200191906001019062000206565b5b50905062000233919062000237565b5090565b5b808211156200025257600081600090555060010162000238565b5090565b60006200026d620002678462000362565b62000339565b9050828152602081018484840111156200028657600080fd5b62000293848285620003a2565b509392505050565b600081519050620002ac81620004b3565b92915050565b600082601f830112620002c457600080fd5b8151620002d684826020860162000256565b91505092915050565b60008060408385031215620002f357600080fd5b600083015167ffffffffffffffff8111156200030e57600080fd5b6200031c85828601620002b2565b92505060206200032f858286016200029b565b9150509250929050565b60006200034562000358565b90506200035382826200040e565b919050565b6000604051905090565b600067ffffffffffffffff82111562000380576200037f62000473565b5b6200038b82620004a2565b9050602081019050919050565b6000819050919050565b60005b83811015620003c2578082015181840152602081019050620003a5565b83811115620003d2576000848401525b50505050565b60006002820490506001821680620003f157607f821691505b6020821081141562000408576200040762000444565b5b50919050565b6200041982620004a2565b810181811067ffffffffffffffff821117156200043b576200043a62000473565b5b80604052505050565b7f4e487b7100000000000000000000000000000000000000000000000000000000600052602260045260246000fd5b7f4e487b7100000000000000000000000000000000000000000000000000000000600052604160045260246000fd5b6000601f19601f8301169050919050565b620004be8162000398565b8114620004ca57600080fd5b50565b610dd780620004dd6000396000f3fe6080604052600436106100385760003560e01c806312065fe0146101635780633fad9ae01461018e5780634eee59b3146101b9576100a4565b366100a4576100697fe2bc68e7134468b1ddeb2df084082d5589b90fa31bf39f4fcc00c3370e9ffeb560001b6101e2565b7f01c232cdee7d39d00cf0bff8bb4ae15e987e4a0e51437a18ad2c0583a7b90055343360405161009a929190610ab6565b60405180910390a1005b6100d07f9e8708b8af14d2ddb4568970f20ba4e0ff8bb1db01966353dc58f7b7190edab860001b6101e2565b6100fc7f8caf9951eb64e5d97b9531a48a86f2ea4bca55561cf674be7b30f4eeefb7b0e960001b6101e2565b6101287fc975b956752338d8af78cdf24eb75fda328b1b93a38c399a9406c02ebbc5d62f60001b6101e2565b7f01c232cdee7d39d00cf0bff8bb4ae15e987e4a0e51437a18ad2c0583a7b900553433604051610159929190610a7a565b60405180910390a1005b34801561016f57600080fd5b506101786101e5565b6040516101859190610af2565b60405180910390f35b34801561019a57600080fd5b506101a3610271565b6040516101b09190610a18565b60405180910390f35b3480156101c557600080fd5b506101e060048036038101906101db91906107b8565b6102ff565b005b50565b60006102137f28824ad4627375b487ebbcfc5dc0f0796196ab77121dbfe0c844d85b1f45e02360001b6101e2565b61023f7f87d55ea744793ca3f521d600805c4d390e3892d6be3d5968b057e8309ca6982960001b6101e2565b61026b7ff58ed2b5377e5d49d2c510d724b5b248d18f2dad81f95136066fd24b89ebca2d60001b6101e2565b47905090565b6000805461027e90610c28565b80601f01602080910402602001604051908101604052809291908181526020018280546102aa90610c28565b80156102f75780601f106102cc576101008083540402835291602001916102f7565b820191906000526020600020905b8154815290600101906020018083116102da57829003601f168201915b505050505081565b61032b7f32a3705fdf6670bc0ecd70d1d60787076dfc52f5e9b9936132503c9dd761452560001b6101e2565b6103577f4124d131a7644a3a506fea821ed515b11077a8830d2db5210b69b5ce442e929760001b6101e2565b6103837fa7d0ab36f424bd039fd3814a836e01df52018ae17239854ffc4289e1e53a1bb460001b6101e2565b6103af7f9deef1afc02b6a2bde8719db94c0468741ab837748eb905f723cd671945df27560001b6101e2565b6001546002826040516020016103c69291906109af565b604051602081830303815290604052805190602001201461041c576040517f08c379a000000000000000000000000000000000000000000000000000000000815260040161041390610a3a565b60405180910390fd5b6104487feb99d105e14c6a662e2c12399819943243041262329ea1f2a83d8bd73acb7df860001b6101e2565b6104747f93ce1b465080841fe378eebfe6cd309659ac25ae947c9421d873b56799ee567e60001b6101e2565b6104a07f7cef229b053905c720caa9ce2da0c64890f495edeeaf5cba4f858e29c9b5cb5960001b6101e2565b6000471115610720576104d57fd3952a6e3c5f606d7a690403e4c15ba7f0e9ee93f0ef70fdf3e41d2d73db767660001b6101e2565b6105017f0b277eb826b761d7417e0b7df2cca76a751184c1bc20a42a6b51e3061f32b89b60001b6101e2565b61052d7f61b1875c090975296e80c9188dc088f2e85fee4dff7a0fbe85da58de1341d22060001b6101e2565b7f90d05bf984d52bda11bbcecdb3f4da999b4257ea19613e6524ad74f8859113d8338260405161055e9291906109e8565b60405180910390a16105927f3b9e80a632347ebf25397e5d6f08d4344881c82edbaf5781000bf423a820e52260001b6101e2565b6105be7f80e4ffbeea4627c19556587a9e64206d62ba3b35fc9795fb4d1347397355c25460001b6101e2565b60003373ffffffffffffffffffffffffffffffffffffffff16476040516105e4906109d3565b60006040518083038185875af1925050503d8060008114610621576040519150601f19603f3d011682016040523d82523d6000602084013e610626565b606091505b505090506106567f67b50e243b46db3a6816f59674699ba0fb6c400707886079bd4577c21876e75860001b6101e2565b6106827f29a44cf86e0628b00eb984deb2f8406349ff7a1eabc25ba4c6bddc0d5bd3fb4e60001b6101e2565b6106ae7fffe68d097a0214721d4457dc59dbb663c7430853cb13c1e78ab367493480d21b60001b6101e2565b806106ee576040517f08c379a00000000000000000000000000000000000000000000000000000000081526004016106e590610a5a565b60405180910390fd5b61071a7fef97a0c5d4b5d2097288229a4c0fb2fc9983cfe2f127b97d7e45cc3fa4e2ff0560001b6101e2565b5061074d565b61074c7f544e21ff6a1dee30051ca93f1673bd3da45cd5841bc367692cc7763f4e218ae760001b6101e2565b5b50565b600061076361075e84610b32565b610b0d565b90508281526020810184848401111561077b57600080fd5b610786848285610be6565b509392505050565b600082601f83011261079f57600080fd5b81356107af848260208601610750565b91505092915050565b6000602082840312156107ca57600080fd5b600082013567ffffffffffffffff8111156107e457600080fd5b6107f08482850161078e565b91505092915050565b61080281610baa565b82525050565b600061081382610b78565b61081d8185610b8e565b935061082d818560208601610bf5565b61083681610ce9565b840191505092915050565b600061084c82610b78565b6108568185610b9f565b9350610866818560208601610bf5565b80840191505092915050565b6000815461087f81610c28565b6108898186610b9f565b945060018216600081146108a457600181146108b5576108e8565b60ff198316865281860193506108e8565b6108be85610b63565b60005b838110156108e0578154818901526001820191506020810190506108c1565b838801955050505b50505092915050565b60006108fe600c83610b8e565b915061090982610cfa565b602082019050919050565b6000610921601483610b8e565b915061092c82610d23565b602082019050919050565b6000610944600883610b8e565b915061094f82610d4c565b602082019050919050565b6000610967600083610b83565b915061097282610d75565b600082019050919050565b600061098a600783610b8e565b915061099582610d78565b602082019050919050565b6109a981610bdc565b82525050565b60006109bb8285610872565b91506109c78284610841565b91508190509392505050565b60006109de8261095a565b9150819050919050565b60006040820190506109fd60008301856107f9565b8181036020830152610a0f8184610808565b90509392505050565b60006020820190508181036000830152610a328184610808565b905092915050565b60006020820190508181036000830152610a53816108f1565b9050919050565b60006020820190508181036000830152610a7381610914565b9050919050565b60006060820190508181036000830152610a9381610937565b9050610aa260208301856109a0565b610aaf60408301846107f9565b9392505050565b60006060820190508181036000830152610acf8161097d565b9050610ade60208301856109a0565b610aeb60408301846107f9565b9392505050565b6000602082019050610b0760008301846109a0565b92915050565b6000610b17610b28565b9050610b238282610c5a565b919050565b6000604051905090565b600067ffffffffffffffff821115610b4d57610b4c610cba565b5b610b5682610ce9565b9050602081019050919050565b60008190508160005260206000209050919050565b600081519050919050565b600081905092915050565b600082825260208201905092915050565b600081905092915050565b6000610bb582610bbc565b9050919050565b600073ffffffffffffffffffffffffffffffffffffffff82169050919050565b6000819050919050565b82818337600083830152505050565b60005b83811015610c13578082015181840152602081019050610bf8565b83811115610c22576000848401525b50505050565b60006002820490506001821680610c4057607f821691505b60208210811415610c5457610c53610c8b565b5b50919050565b610c6382610ce9565b810181811067ffffffffffffffff82111715610c8257610c81610cba565b5b80604052505050565b7f4e487b7100000000000000000000000000000000000000000000000000000000600052602260045260246000fd5b7f4e487b7100000000000000000000000000000000000000000000000000000000600052604160045260246000fd5b6000601f19601f8301169050919050565b7f57726f6e6720616e737765720000000000000000000000000000000000000000600082015250565b7f53656e64696e672066756e6473206661696c6564000000000000000000000000600082015250565b7f66616c6c6261636b000000000000000000000000000000000000000000000000600082015250565b50565b7f726563656976650000000000000000000000000000000000000000000000000060008201525056fea26469706673582212200f68bf720c2e7724ef2a3647a1a77f440445b4d6975120aac400ada48419389f64736f6c63430008040033a2646970667358221220856c070c16b0faa58708c85d20df94983dff0ca5a6c48ccfa2c3048350e333d064736f6c63430008040033",
  "linkReferences": {},
  "deployedLinkReferences": {}
}